{"contracts/Crowdfunding.sol":{"Crowdfunding":{"abi":[{"anonymous":false,"inputs":[{"indexed":true,"internalType":"uint256","name":"projectId","type":"uint256"},{"indexed":true,"internalType":"address","name":"investor","type":"address"},{"indexed":false,"internalType":"uint256","name":"amount","type":"uint256"},{"indexed":false,"internalType":"uint256","name":"newRaisedAmount","type":"uint256"}],"name":"Invested","type":"event"},{"anonymous":false,"inputs":[{"indexed":true,"internalType":"uint256","name":"projectId","type":"uint256"},{"indexed":true,"internalType":"address","name":"owner","type":"address"},{"indexed":false,"internalType":"uint256","name":"goal","type":"uint256"}],"name":"ProjectCreated","type":"event"},{"inputs":[{"internalType":"uint256","name":"_goalAmount","type":"uint256"},{"internalType":"uint256","name":"_durationInSeconds","type":"uint256"}],"name":"createProject","outputs":[],"stateMutability":"nonpayable","type":"function"},{"inputs":[{"internalType":"uint256","name":"_projectId","type":"uint256"}],"name":"invest","outputs":[],"stateMutability":"payable","type":"function"},{"inputs":[{"internalType":"uint256","name":"","type":"uint256"}],"name":"projects","outputs":[{"internalType":"address payable","name":"owner","type":"address"},{"internalType":"uint256","name":"goalAmount","type":"uint256"},{"internalType":"uint256","name":"currentRaisedAmount","type":"uint256"},{"internalType":"uint256","name":"deadline","type":"uint256"},{"internalType":"enum Crowdfunding.State","name":"currentState","type":"uint8"},{"internalType":"uint256","name":"investorCount","type":"uint256"}],"stateMutability":"view","type":"function"}],"evm":{"bytecode":{"linkReferences":{},"object":"6080604052348015600f57600080fd5b5061051f8061001f6000396000f3fe6080604052600436106100345760003560e01c806302da667b14610039578063107046bd1461005b5780632afcf48014610096575b600080fd5b34801561004557600080fd5b506100596100543660046103e3565b6100a9565b005b34801561006757600080fd5b5061007b610076366004610405565b61015b565b60405161008d96959493929190610434565b60405180910390f35b6100596100a4366004610405565b6101b1565b60008054600181018083558280529091908190839081106100cc576100cc61048b565b60009182526020822060079091020180546001600160a01b03191633178155600181018690556002810191909155905061010683426104b7565b600382015560048101805460ff1916905560006005820155604051848152339083907f1b9d0946c0a6f3b3a57782ad25a4553bd5bcf1f1a252068eafc757670aad573a9060200160405180910390a350505050565b6000818154811061016b57600080fd5b60009182526020909120600790910201805460018201546002830154600384015460048501546005909501546001600160a01b0390941695509193909260ff9091169086565b60005481106101fd5760405162461bcd60e51b815260206004820152601360248201527224b73b30b634b210383937b532b1ba1024a21760691b60448201526064015b60405180910390fd5b6000341161025b5760405162461bcd60e51b815260206004820152602560248201527f496e766573746d656e74206d7573742062652067726561746572207468616e206044820152643d32b9379760d91b60648201526084016101f4565b600080828154811061026f5761026f61048b565b6000918252602082206007909102019150600482015460ff1660028111156102995761029961041e565b146102e65760405162461bcd60e51b815260206004820152601760248201527f50726f6a656374206973206e6f742070656e64696e672e00000000000000000060448201526064016101f4565b806003015442106103395760405162461bcd60e51b815260206004820152601960248201527f46756e64696e6720706572696f642068617320656e6465642e0000000000000060448201526064016101f4565b336000908152600682016020526040812080549134919061035a83856104b7565b925050819055503482600201600082825461037591906104b7565b9091555050600081900361039b57600582018054906000610395836104d0565b91905055505b6002820154604080513481526020810192909252339185917f271dec505c61c970bdd791a963b7162d814edf6292f40c4beef2af1e48eea1e8910160405180910390a3505050565b600080604083850312156103f657600080fd5b50508035926020909101359150565b60006020828403121561041757600080fd5b5035919050565b634e487b7160e01b600052602160045260246000fd5b6001600160a01b038716815260208101869052604081018590526060810184905260c081016003841061047757634e487b7160e01b600052602160045260246000fd5b608082019390935260a00152949350505050565b634e487b7160e01b600052603260045260246000fd5b634e487b7160e01b600052601160045260246000fd5b808201808211156104ca576104ca6104a1565b92915050565b6000600182016104e2576104e26104a1565b506001019056fea2646970667358221220ad8a64c55d9754d4c5ae234cb91d7e8a4a52acd2a04899bcb4837a38c7a0e99a64736f6c634300081c0033","opcodes":"PUSH1 0x80 PUSH1 0x40 MSTORE CALLVALUE DUP1 ISZERO PUSH1 0xF JUMPI PUSH1 0x0 DUP1 REVERT JUMPDEST POP PUSH2 0x51F DUP1 PUSH2 0x1F PUSH1 0x0 CODECOPY PUSH1 0x0 RETURN INVALID PUSH1 0x80 PUSH1 0x40 MSTORE PUSH1 0x4 CALLDATASIZE LT PUSH2 0x34 JUMPI PUSH1 0x0 CALLDATALOAD PUSH1 0xE0 SHR DUP1 PUSH4 0x2DA667B EQ PUSH2 0x39 JUMPI DUP1 PUSH4 0x107046BD EQ PUSH2 0x5B JUMPI DUP1 PUSH4 0x2AFCF480 EQ PUSH2 0x96 JUMPI JUMPDEST PUSH1 0x0 DUP1 REVERT JUMPDEST CALLVALUE DUP1 ISZERO PUSH2 0x45 JUMPI PUSH1 0x0 DUP1 REVERT JUMPDEST POP PUSH2 0x59 PUSH2 0x54 CALLDATASIZE PUSH1 0x4 PUSH2 0x3E3 JUMP JUMPDEST PUSH2 0xA9 JUMP JUMPDEST STOP JUMPDEST CALLVALUE DUP1 ISZERO PUSH2 0x67 JUMPI PUSH1 0x0 DUP1 REVERT JUMPDEST POP PUSH2 0x7B PUSH2 0x76 CALLDATASIZE PUSH1 0x4 PUSH2 0x405 JUMP JUMPDEST PUSH2 0x15B JUMP JUMPDEST PUSH1 0x40 MLOAD PUSH2 0x8D SWAP7 SWAP6 SWAP5 SWAP4 SWAP3 SWAP2 SWAP1 PUSH2 0x434 JUMP JUMPDEST PUSH1 0x40 MLOAD DUP1 SWAP2 SUB SWAP1 RETURN JUMPDEST PUSH2 0x59 PUSH2 0xA4 CALLDATASIZE PUSH1 0x4 PUSH2 0x405 JUMP JUMPDEST PUSH2 0x1B1 JUMP JUMPDEST PUSH1 0x0 DUP1 SLOAD PUSH1 0x1 DUP2 ADD DUP1 DUP4 SSTORE DUP3 DUP1 MSTORE SWAP1 SWAP2 SWAP1 DUP2 SWAP1 DUP4 SWAP1 DUP2 LT PUSH2 0xCC JUMPI PUSH2 0xCC PUSH2 0x48B JUMP JUMPDEST PUSH1 0x0 SWAP2 DUP3 MSTORE PUSH1 0x20 DUP3 KECCAK256 PUSH1 0x7 SWAP1 SWAP2 MUL ADD DUP1 SLOAD PUSH1 0x1 PUSH1 0x1 PUSH1 0xA0 SHL SUB NOT AND CALLER OR DUP2 SSTORE PUSH1 0x1 DUP2 ADD DUP7 SWAP1 SSTORE PUSH1 0x2 DUP2 ADD SWAP2 SWAP1 SWAP2 SSTORE SWAP1 POP PUSH2 0x106 DUP4 TIMESTAMP PUSH2 0x4B7 JUMP JUMPDEST PUSH1 0x3 DUP3 ADD SSTORE PUSH1 0x4 DUP2 ADD DUP1 SLOAD PUSH1 0xFF NOT AND SWAP1 SSTORE PUSH1 0x0 PUSH1 0x5 DUP3 ADD SSTORE PUSH1 0x40 MLOAD DUP5 DUP2 MSTORE CALLER SWAP1 DUP4 SWAP1 PUSH32 0x1B9D0946C0A6F3B3A57782AD25A4553BD5BCF1F1A252068EAFC757670AAD573A SWAP1 PUSH1 0x20 ADD PUSH1 0x40 MLOAD DUP1 SWAP2 SUB SWAP1 LOG3 POP POP POP POP JUMP JUMPDEST PUSH1 0x0 DUP2 DUP2 SLOAD DUP2 LT PUSH2 0x16B JUMPI PUSH1 0x0 DUP1 REVERT JUMPDEST PUSH1 0x0 SWAP2 DUP3 MSTORE PUSH1 0x20 SWAP1 SWAP2 KECCAK256 PUSH1 0x7 SWAP1 SWAP2 MUL ADD DUP1 SLOAD PUSH1 0x1 DUP3 ADD SLOAD PUSH1 0x2 DUP4 ADD SLOAD PUSH1 0x3 DUP5 ADD SLOAD PUSH1 0x4 DUP6 ADD SLOAD PUSH1 0x5 SWAP1 SWAP6 ADD SLOAD PUSH1 0x1 PUSH1 0x1 PUSH1 0xA0 SHL SUB SWAP1 SWAP5 AND SWAP6 POP SWAP2 SWAP4 SWAP1 SWAP3 PUSH1 0xFF SWAP1 SWAP2 AND SWAP1 DUP7 JUMP JUMPDEST PUSH1 0x0 SLOAD DUP2 LT PUSH2 0x1FD JUMPI PUSH1 0x40 MLOAD PUSH3 0x461BCD PUSH1 0xE5 SHL DUP2 MSTORE PUSH1 0x20 PUSH1 0x4 DUP3 ADD MSTORE PUSH1 0x13 PUSH1 0x24 DUP3 ADD MSTORE PUSH19 0x24B73B30B634B210383937B532B1BA1024A217 PUSH1 0x69 SHL PUSH1 0x44 DUP3 ADD MSTORE PUSH1 0x64 ADD JUMPDEST PUSH1 0x40 MLOAD DUP1 SWAP2 SUB SWAP1 REVERT JUMPDEST PUSH1 0x0 CALLVALUE GT PUSH2 0x25B JUMPI PUSH1 0x40 MLOAD PUSH3 0x461BCD PUSH1 0xE5 SHL DUP2 MSTORE PUSH1 0x20 PUSH1 0x4 DUP3 ADD MSTORE PUSH1 0x25 PUSH1 0x24 DUP3 ADD MSTORE PUSH32 0x496E766573746D656E74206D7573742062652067726561746572207468616E20 PUSH1 0x44 DUP3 ADD MSTORE PUSH5 0x3D32B93797 PUSH1 0xD9 SHL PUSH1 0x64 DUP3 ADD MSTORE PUSH1 0x84 ADD PUSH2 0x1F4 JUMP JUMPDEST PUSH1 0x0 DUP1 DUP3 DUP2 SLOAD DUP2 LT PUSH2 0x26F JUMPI PUSH2 0x26F PUSH2 0x48B JUMP JUMPDEST PUSH1 0x0 SWAP2 DUP3 MSTORE PUSH1 0x20 DUP3 KECCAK256 PUSH1 0x7 SWAP1 SWAP2 MUL ADD SWAP2 POP PUSH1 0x4 DUP3 ADD SLOAD PUSH1 0xFF AND PUSH1 0x2 DUP2 GT ISZERO PUSH2 0x299 JUMPI PUSH2 0x299 PUSH2 0x41E JUMP JUMPDEST EQ PUSH2 0x2E6 JUMPI PUSH1 0x40 MLOAD PUSH3 0x461BCD PUSH1 0xE5 SHL DUP2 MSTORE PUSH1 0x20 PUSH1 0x4 DUP3 ADD MSTORE PUSH1 0x17 PUSH1 0x24 DUP3 ADD MSTORE PUSH32 0x50726F6A656374206973206E6F742070656E64696E672E000000000000000000 PUSH1 0x44 DUP3 ADD MSTORE PUSH1 0x64 ADD PUSH2 0x1F4 JUMP JUMPDEST DUP1 PUSH1 0x3 ADD SLOAD TIMESTAMP LT PUSH2 0x339 JUMPI PUSH1 0x40 MLOAD PUSH3 0x461BCD PUSH1 0xE5 SHL DUP2 MSTORE PUSH1 0x20 PUSH1 0x4 DUP3 ADD MSTORE PUSH1 0x19 PUSH1 0x24 DUP3 ADD MSTORE PUSH32 0x46756E64696E6720706572696F642068617320656E6465642E00000000000000 PUSH1 0x44 DUP3 ADD MSTORE PUSH1 0x64 ADD PUSH2 0x1F4 JUMP JUMPDEST CALLER PUSH1 0x0 SWAP1 DUP2 MSTORE PUSH1 0x6 DUP3 ADD PUSH1 0x20 MSTORE PUSH1 0x40 DUP2 KECCAK256 DUP1 SLOAD SWAP2 CALLVALUE SWAP2 SWAP1 PUSH2 0x35A DUP4 DUP6 PUSH2 0x4B7 JUMP JUMPDEST SWAP3 POP POP DUP2 SWAP1 SSTORE POP CALLVALUE DUP3 PUSH1 0x2 ADD PUSH1 0x0 DUP3 DUP3 SLOAD PUSH2 0x375 SWAP2 SWAP1 PUSH2 0x4B7 JUMP JUMPDEST SWAP1 SWAP2 SSTORE POP POP PUSH1 0x0 DUP2 SWAP1 SUB PUSH2 0x39B JUMPI PUSH1 0x5 DUP3 ADD DUP1 SLOAD SWAP1 PUSH1 0x0 PUSH2 0x395 DUP4 PUSH2 0x4D0 JUMP JUMPDEST SWAP2 SWAP1 POP SSTORE POP JUMPDEST PUSH1 0x2 DUP3 ADD SLOAD PUSH1 0x40 DUP1 MLOAD CALLVALUE DUP2 MSTORE PUSH1 0x20 DUP2 ADD SWAP3 SWAP1 SWAP3 MSTORE CALLER SWAP2 DUP6 SWAP2 PUSH32 0x271DEC505C61C970BDD791A963B7162D814EDF6292F40C4BEEF2AF1E48EEA1E8 SWAP2 ADD PUSH1 0x40 MLOAD DUP1 SWAP2 SUB SWAP1 LOG3 POP POP POP JUMP JUMPDEST PUSH1 0x0 DUP1 PUSH1 0x40 DUP4 DUP6 SUB SLT ISZERO PUSH2 0x3F6 JUMPI PUSH1 0x0 DUP1 REVERT JUMPDEST POP POP DUP1 CALLDATALOAD SWAP3 PUSH1 0x20 SWAP1 SWAP2 ADD CALLDATALOAD SWAP2 POP JUMP JUMPDEST PUSH1 0x0 PUSH1 0x20 DUP3 DUP5 SUB SLT ISZERO PUSH2 0x417 JUMPI PUSH1 0x0 DUP1 REVERT JUMPDEST POP CALLDATALOAD SWAP2 SWAP1 POP JUMP JUMPDEST PUSH4 0x4E487B71 PUSH1 0xE0 SHL PUSH1 0x0 MSTORE PUSH1 0x21 PUSH1 0x4 MSTORE PUSH1 0x24 PUSH1 0x0 REVERT JUMPDEST PUSH1 0x1 PUSH1 0x1 PUSH1 0xA0 SHL SUB DUP8 AND DUP2 MSTORE PUSH1 0x20 DUP2 ADD DUP7 SWAP1 MSTORE PUSH1 0x40 DUP2 ADD DUP6 SWAP1 MSTORE PUSH1 0x60 DUP2 ADD DUP5 SWAP1 MSTORE PUSH1 0xC0 DUP2 ADD PUSH1 0x3 DUP5 LT PUSH2 0x477 JUMPI PUSH4 0x4E487B71 PUSH1 0xE0 SHL PUSH1 0x0 MSTORE PUSH1 0x21 PUSH1 0x4 MSTORE PUSH1 0x24 PUSH1 0x0 REVERT JUMPDEST PUSH1 0x80 DUP3 ADD SWAP4 SWAP1 SWAP4 MSTORE PUSH1 0xA0 ADD MSTORE SWAP5 SWAP4 POP POP POP POP JUMP JUMPDEST PUSH4 0x4E487B71 PUSH1 0xE0 SHL PUSH1 0x0 MSTORE PUSH1 0x32 PUSH1 0x4 MSTORE PUSH1 0x24 PUSH1 0x0 REVERT JUMPDEST PUSH4 0x4E487B71 PUSH1 0xE0 SHL PUSH1 0x0 MSTORE PUSH1 0x11 PUSH1 0x4 MSTORE PUSH1 0x24 PUSH1 0x0 REVERT JUMPDEST DUP1 DUP3 ADD DUP1 DUP3 GT ISZERO PUSH2 0x4CA JUMPI PUSH2 0x4CA PUSH2 0x4A1 JUMP JUMPDEST SWAP3 SWAP2 POP POP JUMP JUMPDEST PUSH1 0x0 PUSH1 0x1 DUP3 ADD PUSH2 0x4E2 JUMPI PUSH2 0x4E2 PUSH2 0x4A1 JUMP JUMPDEST POP PUSH1 0x1 ADD SWAP1 JUMP INVALID LOG2 PUSH5 0x6970667358 0x22 SLT KECCAK256 0xAD DUP11 PUSH5 0xC55D9754D4 0xC5 0xAE 0x23 0x4C 0xB9 SAR PUSH31 0x8A4A52ACD2A04899BCB4837A38C7A0E99A64736F6C634300081C0033000000 "},"methodIdentifiers":{"createProject(uint256,uint256)":"02da667b","invest(uint256)":"2afcf480","projects(uint256)":"107046bd"}}}}}