{
  "_format": "hh-sol-artifact-1",
  "contractName": "Crowdfunding",
  "sourceName": "contracts/Crowdfunding.sol",
  "abi": [
    {
      "anonymous": false,
      "inputs": [
        {
          "indexed": true,
          "internalType": "uint256",
          "name": "projectId",
          "type": "uint256"
        },
        {
          "indexed": true,
          "internalType": "address",
          "name": "investor",
          "type": "address"
        },
        {
          "indexed": false,
          "internalType": "uint256",
          "name": "amount",
          "type": "uint256"
        },
        {
          "indexed": false,
          "internalType": "uint256",
          "name": "newRaisedAmount",
          "type": "uint256"
        }
      ],
      "name": "Invested",
      "type": "event"
    },
    {
      "anonymous": false,
      "inputs": [
        {
          "indexed": true,
          "internalType": "uint256",
          "name": "projectId",
          "type": "uint256"
        },
        {
          "indexed": true,
          "internalType": "address",
          "name": "owner",
          "type": "address"
        },
        {
          "indexed": false,
          "internalType": "uint256",
          "name": "goal",
          "type": "uint256"
        }
      ],
      "name": "ProjectCreated",
      "type": "event"
    },
    {
      "inputs": [
        {
          "internalType": "uint256",
          "name": "_goalAmount",
          "type": "uint256"
        },
        {
          "internalType": "uint256",
          "name": "_durationInSeconds",
          "type": "uint256"
        }
      ],
      "name": "createProject",
      "outputs": [],
      "stateMutability": "nonpayable",
      "type": "function"
    },
    {
      "inputs": [
        {
          "internalType": "uint256",
          "name": "_projectId",
          "type": "uint256"
        }
      ],
      "name": "invest",
      "outputs": [],
      "stateMutability": "payable",
      "type": "function"
    },
    {
      "inputs": [
        {
          "internalType": "uint256",
          "name": "",
          "type": "uint256"
        }
      ],
      "name": "projects",
      "outputs": [
        {
          "internalType": "address payable",
          "name": "owner",
          "type": "address"
        },
        {
          "internalType": "uint256",
          "name": "goalAmount",
          "type": "uint256"
        },
        {
          "internalType": "uint256",
          "name": "currentRaisedAmount",
          "type": "uint256"
        },
        {
          "internalType": "uint256",
          "name": "deadline",
          "type": "uint256"
        },
        {
          "internalType": "enum Crowdfunding.State",
          "name": "currentState",
          "type": "uint8"
        },
        {
          "internalType": "uint256",
          "name": "investorCount",
          "type": "uint256"
        }
      ],
      "stateMutability": "view",
      "type": "function"
    }
  ],
  "bytecode": "0x6080604052348015600f57600080fd5b5061051f8061001f6000396000f3fe6080604052600436106100345760003560e01c806302da667b14610039578063107046bd1461005b5780632afcf48014610096575b600080fd5b34801561004557600080fd5b506100596100543660046103e3565b6100a9565b005b34801561006757600080fd5b5061007b610076366004610405565b61015b565b60405161008d96959493929190610434565b60405180910390f35b6100596100a4366004610405565b6101b1565b60008054600181018083558280529091908190839081106100cc576100cc61048b565b60009182526020822060079091020180546001600160a01b03191633178155600181018690556002810191909155905061010683426104b7565b600382015560048101805460ff1916905560006005820155604051848152339083907f1b9d0946c0a6f3b3a57782ad25a4553bd5bcf1f1a252068eafc757670aad573a9060200160405180910390a350505050565b6000818154811061016b57600080fd5b60009182526020909120600790910201805460018201546002830154600384015460048501546005909501546001600160a01b0390941695509193909260ff9091169086565b60005481106101fd5760405162461bcd60e51b815260206004820152601360248201527224b73b30b634b210383937b532b1ba1024a21760691b60448201526064015b60405180910390fd5b6000341161025b5760405162461bcd60e51b815260206004820152602560248201527f496e766573746d656e74206d7573742062652067726561746572207468616e206044820152643d32b9379760d91b60648201526084016101f4565b600080828154811061026f5761026f61048b565b6000918252602082206007909102019150600482015460ff1660028111156102995761029961041e565b146102e65760405162461bcd60e51b815260206004820152601760248201527f50726f6a656374206973206e6f742070656e64696e672e00000000000000000060448201526064016101f4565b806003015442106103395760405162461bcd60e51b815260206004820152601960248201527f46756e64696e6720706572696f642068617320656e6465642e0000000000000060448201526064016101f4565b336000908152600682016020526040812080549134919061035a83856104b7565b925050819055503482600201600082825461037591906104b7565b9091555050600081900361039b57600582018054906000610395836104d0565b91905055505b6002820154604080513481526020810192909252339185917f271dec505c61c970bdd791a963b7162d814edf6292f40c4beef2af1e48eea1e8910160405180910390a3505050565b600080604083850312156103f657600080fd5b50508035926020909101359150565b60006020828403121561041757600080fd5b5035919050565b634e487b7160e01b600052602160045260246000fd5b6001600160a01b038716815260208101869052604081018590526060810184905260c081016003841061047757634e487b7160e01b600052602160045260246000fd5b608082019390935260a00152949350505050565b634e487b7160e01b600052603260045260246000fd5b634e487b7160e01b600052601160045260246000fd5b808201808211156104ca576104ca6104a1565b92915050565b6000600182016104e2576104e26104a1565b506001019056fea2646970667358221220ad8a64c55d9754d4c5ae234cb91d7e8a4a52acd2a04899bcb4837a38c7a0e99a64736f6c634300081c0033",
  "linkReferences": {},
  "deployedLinkReferences": {}
}